:020000040800F2
:100000002004002045010008E5020008B1020008B4
:10001000E10200088D010008CB0600080000000086
:10002000000000000000000000000000DD030008E8
:100030009101000800000000E7020008C904000860
:100040005F0100085F0100085F0100085F01000810
:100050005F0100085F0100085F0100085F01000800
:100060005F0100085F0100085F0100085F010008F0
:100070005F0100085F0100085F0100085F010008E0
:100080005F0100085F0100085F0100085F010008D0
:100090005F0100085F0100085F0100085F010008C0
:1000A0005F0100085F0100085F0100085F010008B0
:1000B0005F0100085F0100085F0100085F010008A0
:1000C0005F0100085F0100085F0100085F01000890
:1000D0005F0100085F0100085F0100085F01000880
:1000E0005F0100085F0100085F0100085F01000870
:1000F0005F0100085F0100085F0100085F01000860
:100100005F0100085F0100085F0100085F0100084F
:100110005F0100085F0100085F0100085F0100083F
:100120005F0100085F0100085F0100085F0100082F
:10013000DFF80CD000F018F8004800474908000824
:10014000200400200648804706480047FEE7FEE7F7
:10015000FEE7FEE7FEE7FEE7FEE7FEE7FEE7FEE777
:10016000CD04000831010008064C074D06E0E068A8
:1001700040F0010394E8070098471034AC42F6D3EE
:10018000FFF7DAFF040900082409000800BFFEE7B2
:1001900070472DE9F041024600250026002000238B
:1001A0000024002791F803C00CF00F0591F803C05C
:1001B0000CF0100CBCF1000F03D091F802C04CEA17
:1001C000050591F800C0BCF1000F31D01468002083
:1001D0002BE04FF0010C0CFA00F3B1F800C00CEA70
:1001E00003069E4220D183004FF00F0C0CFA03F758
:1001F000BC4305FA03FC4CEA040491F803C0BCF1CB
:10020000280F06D14FF0010C0CFA00FCC2F814C004
:100210000AE091F803C0BCF1480F05D14FF0010C82
:100220000CFA00FCC2F810C0401C0828D1D314609E
:10023000B1F800C0BCF1FF0F34DD546800202EE09F
:1002400000F1080C4FF0010808FA0CF3B1F800C0F7
:100250000CEA03069E4221D183004FF00F0C0CFAEA
:1002600003F7BC4305FA03FC4CEA040491F803C00D
:10027000BCF1280F05D100F1080C08FA0CF8C2F8FF
:10028000148091F803C0BCF1480F07D100F1080CAD
:100290004FF0010808FA0CF8C2F81080401C08283A
:1002A000CED35460BDE8F081416170470161704771
:1002B00000BFFEE708B50121082000F015F8012075
:1002C000ADF8000003208DF8020010208DF8030027
:1002D00069460248FFF75DFF08BD0000000C0140C1
:1002E00000BFFEE77047704729B1064A9269024392
:1002F000044B9A6104E0034A92698243014B9A617C
:10030000704700000010024030B500210022002498
:1003100000232D4D6D6805F00C0121B1042905D095
:10032000082923D105E0294D056022E0274D05600D
:100330001FE0254D6D6805F47012234D6D6805F4BE
:100340008034022505EB92421CB9214D55430560CE
:100350000BE01D4D6D6805F400351DB11C4D554376
:10036000056002E0194D5543056002E0174D056038
:1003700000BF00BF144D6D6805F0F0010909154D6F
:100380006B5C0568DD4045600F4D6D6805F4E0610C
:10039000090A104D6B5C4568DD4085600A4D6D684B
:1003A00005F46051C90A0B4D6B5C4568DD40C560C2
:1003B000054D6D6805F44041890B074D6B5CC568C0
:1003C000B5FBF3F5056130BD0010024000127A0064
:1003D00000093D000000002010000020704710B50B
:1003E00000F002F810BD00000CB500200190009054
:1003F0003348006840F480303149086000BF30481D
:10040000006800F4003000900198401C01900098B2
:1004100018B90198B0F5A06FF1D12948006800F42F
:10042000003010B10120009001E000200090009801
:10043000012843D12348006840F01000214908609A
:100440000846006820F0030008600846006840F095
:10045000020008601A484068194948600846406828
:1004600048600846406840F480604860084640683C
:1004700020F47C1048600846406840F4E81048606A
:100480000846006840F08070086000BF0C480068B3
:1004900000F000700028F9D00948406820F00300FF
:1004A000074948600846406840F00200486000BFC5
:1004B0000348406800F00C000828F9D10CBD00008A
:1004C00000100240002002407047000010B51348A1
:1004D000006840F001001149086008464068104972
:1004E00008400E494860084600680E4908400B491C
:1004F00008600846006820F48020086008464068CC
:1005000020F4FE0048604FF41F008860FFF767FF8B
:100510004FF000600449086010BD00000010024068
:100520000000FFF8FFFFF6FE08ED00E021B1828930
:1005300042F40052828104E082894DF6FF731A4032
:100540008281704700B585B001210420FFF7CCFE01
:1005500001218803FFF7C8FE4FF40070ADF81000CA
:1005600018208DF8130003208DF8120004A91348F9
:10057000FFF70FFE4FF48060ADF8100004208DF8F7
:10058000130004A90D48FFF704FE4FF4E13000907A
:100590000020ADF80400ADF80600ADF80800ADF895
:1005A0000C000C20ADF80A006946054800F018F868
:1005B00001210348FFF7BAFF05B000BD0008014064
:1005C0000038014002460020B1F5007F00D100BF95
:1005D00013880B400BB1012000E0002070470000A1
:1005E0002DE9F04786B005460E460024A24600BF1E
:1005F000A1460027B08900B100BF2F462C8A4CF6D7
:10060000FF700440F08804432C82AC894EF6F3104E
:100610000440B08831890843718908430443AC81A0
:10062000AC8A4FF6FF400440B0890443AC8201A875
:10063000FFF76AFE1F48874202D1DDF810A001E0F3
:10064000DDF80CA0A88900F4004040B10AEBCA0014
:1006500000EB0A1031684900B0FBF1F807E00AEB43
:10066000CA0000EB0A1031688900B0FBF1F8642081
:10067000B8FBF0F004012009642101FB1089A8896E
:1006800000F4004040B1322000EBC900B0FBF1F0B3
:1006900000F00700044308E0322000EB0910642159
:1006A000B0FBF1F000F00F0004432C8106B0BDE870
:1006B000F08700000038014001468888C0F3080038
:1006C0007047C1F308028280704700BFFEE770B533
:1006D00004460D4629462046FFF7F3FF00BF802160
:1006E0002046FFF76FFF0028F9D070BD0FB4054B0F
:1006F00010B503A9044A029800F017F810BC5DF881
:1007000014FB0000210800081800002002E008C8BF
:10071000121F08C1002AFAD170477047002001E07B
:1007200001C1121F002AFBD170472DE9F84F9946ED
:10073000924688460546002706E025280AD05146FD
:100740004A4690476D1C7F1C28780028F5D1384612
:10075000BDE8F88F002315F8011F18462E2915D182
:1007600015F8011F04232A290DD06FF02F022978D4
:10077000A1F13004092C09D800EB800002EB400005
:1007800008446D1CF3E758F8040B6D1C2A78002A06
:10079000DDD0632A07D0732A0FD0104651464A464F
:1007A00090477F1C2AE018F8042B8DF800200021C8
:1007B0008DF801106E46012103E058F8046B4FF0EC
:1007C000FF315A074FF0000401D409E0641C844251
:1007D0000BDA8C42FADB325D002AF7D105E0641CAB
:1007E0008C42FCDB305D0028F9D1274404E016F888
:1007F000010B51464A469047641EF8D26D1CA3E790
:1008000010B5044600BF20210448FFF7DBFE002896
:10081000F9D00248FFF750FF10BD0000003801403A
:1008200070B504460D46E1B20548FFF750FF00BF22
:1008300080210348FFF7C6FE0028F9D0204670BD8E
:1008400000380140FFF7DCBFFFF77CFEFFF732FD09
:1008500024A0FFF74BFF43E02648FFF7F3FFC4B2A5
:10086000214625A0FFF742FF312C04D0322C0FD0B7
:10087000332C27D119E020212148FFF715FD012154
:100880001F48FFF713FD02211D48FFF70FFD26E06B
:1008900020211B48FFF70AFD01211948FFF704FD3D
:1008A00002211748FFF702FD19E020211448FFF745
:1008B000FDFC01211248FFF7F9FC02211048FFF767
:1008C000F3FC0CE020210E48FFF7F0FC01210C485E
:1008D000FFF7ECFC02210A48FFF7E8FC00BF00BF6D
:1008E000BAE70000B4AEBFDABFD8D6C6524742B5A9
:1008F000C60A00001400002063683D25630A00005A
:10090000000C014024090008000000201C00000029
:100910000C070008400900081C0000200404000027
:100920001C07000800000000010203040102030488
:100930000607080902040608000000000000000085
:0400000508000131BD
:00000001FF
